{
	"bank.sol": {
		"Bank": {
			"abi": [
				{
					"anonymous": false,
					"inputs": [
						{
							"indexed": true,
							"internalType": "address",
							"name": "user",
							"type": "address"
						},
						{
							"indexed": false,
							"internalType": "uint256",
							"name": "amount",
							"type": "uint256"
						}
					],
					"name": "Deposit",
					"type": "event"
				},
				{
					"anonymous": false,
					"inputs": [
						{
							"indexed": true,
							"internalType": "address",
							"name": "user",
							"type": "address"
						},
						{
							"indexed": false,
							"internalType": "uint256",
							"name": "amount",
							"type": "uint256"
						}
					],
					"name": "Withdrawal",
					"type": "event"
				},
				{
					"inputs": [
						{
							"internalType": "uint256",
							"name": "amount",
							"type": "uint256"
						}
					],
					"name": "deposit",
					"outputs": [],
					"stateMutability": "nonpayable",
					"type": "function"
				},
				{
					"inputs": [],
					"name": "getBalance",
					"outputs": [
						{
							"internalType": "uint256",
							"name": "",
							"type": "uint256"
						}
					],
					"stateMutability": "view",
					"type": "function"
				},
				{
					"inputs": [
						{
							"internalType": "uint256",
							"name": "amount",
							"type": "uint256"
						}
					],
					"name": "withdraw",
					"outputs": [],
					"stateMutability": "nonpayable",
					"type": "function"
				}
			],
			"devdoc": {
				"kind": "dev",
				"methods": {},
				"version": 1
			},
			"evm": {
				"assembly": "    /* \"bank.sol\":60:850  contract Bank {... */\n  mstore(0x40, 0x80)\n  callvalue\n  dup1\n  iszero\n  tag_1\n  jumpi\n  revert(0x00, 0x00)\ntag_1:\n  pop\n  dataSize(sub_0)\n  dup1\n  dataOffset(sub_0)\n  0x00\n  codecopy\n  0x00\n  return\nstop\n\nsub_0: assembly {\n        /* \"bank.sol\":60:850  contract Bank {... */\n      mstore(0x40, 0x80)\n      callvalue\n      dup1\n      iszero\n      tag_1\n      jumpi\n      revert(0x00, 0x00)\n    tag_1:\n      pop\n      jumpi(tag_2, lt(calldatasize, 0x04))\n      shr(0xe0, calldataload(0x00))\n      dup1\n      0x12065fe0\n      eq\n      tag_3\n      jumpi\n      dup1\n      0x2e1a7d4d\n      eq\n      tag_4\n      jumpi\n      dup1\n      0xb6b55f25\n      eq\n      tag_5\n      jumpi\n    tag_2:\n      revert(0x00, 0x00)\n        /* \"bank.sol\":747:847  function getBalance() external view returns (uint256) {... */\n    tag_3:\n      tag_6\n      tag_7\n      jump\t// in\n    tag_6:\n      mload(0x40)\n      tag_8\n      swap2\n      swap1\n      tag_9\n      jump\t// in\n    tag_8:\n      mload(0x40)\n      dup1\n      swap2\n      sub\n      swap1\n      return\n        /* \"bank.sol\":461:739  function withdraw(uint256 amount) external {... */\n    tag_4:\n      tag_10\n      0x04\n      dup1\n      calldatasize\n      sub\n      dup2\n      add\n      swap1\n      tag_11\n      swap2\n      swap1\n      tag_12\n      jump\t// in\n    tag_11:\n      tag_13\n      jump\t// in\n    tag_10:\n      stop\n        /* \"bank.sol\":253:453  function deposit(uint256 amount) external {... */\n    tag_5:\n      tag_14\n      0x04\n      dup1\n      calldatasize\n      sub\n      dup2\n      add\n      swap1\n      tag_15\n      swap2\n      swap1\n      tag_12\n      jump\t// in\n    tag_15:\n      tag_16\n      jump\t// in\n    tag_14:\n      stop\n        /* \"bank.sol\":747:847  function getBalance() external view returns (uint256) {... */\n    tag_7:\n        /* \"bank.sol\":792:799  uint256 */\n      0x00\n        /* \"bank.sol\":819:827  balances */\n      0x00\n        /* \"bank.sol\":819:839  balances[msg.sender] */\n      0x00\n        /* \"bank.sol\":828:838  msg.sender */\n      caller\n        /* \"bank.sol\":819:839  balances[msg.sender] */\n      0xffffffffffffffffffffffffffffffffffffffff\n      and\n      0xffffffffffffffffffffffffffffffffffffffff\n      and\n      dup2\n      mstore\n      0x20\n      add\n      swap1\n      dup2\n      mstore\n      0x20\n      add\n      0x00\n      keccak256\n      sload\n        /* \"bank.sol\":812:839  return balances[msg.sender] */\n      swap1\n      pop\n        /* \"bank.sol\":747:847  function getBalance() external view returns (uint256) {... */\n      swap1\n      jump\t// out\n        /* \"bank.sol\":461:739  function withdraw(uint256 amount) external {... */\n    tag_13:\n        /* \"bank.sol\":532:533  0 */\n      0x00\n        /* \"bank.sol\":523:529  amount */\n      dup2\n        /* \"bank.sol\":523:533  amount > 0 */\n      gt\n        /* \"bank.sol\":515:570  require(amount > 0, \"Amount must be greater than zero\") */\n      tag_19\n      jumpi\n      mload(0x40)\n      0x08c379a000000000000000000000000000000000000000000000000000000000\n      dup2\n      mstore\n      0x04\n      add\n      tag_20\n      swap1\n      tag_21\n      jump\t// in\n    tag_20:\n      mload(0x40)\n      dup1\n      swap2\n      sub\n      swap1\n      revert\n    tag_19:\n        /* \"bank.sol\":613:619  amount */\n      dup1\n        /* \"bank.sol\":589:597  balances */\n      0x00\n        /* \"bank.sol\":589:609  balances[msg.sender] */\n      0x00\n        /* \"bank.sol\":598:608  msg.sender */\n      caller\n        /* \"bank.sol\":589:609  balances[msg.sender] */\n      0xffffffffffffffffffffffffffffffffffffffff\n      and\n      0xffffffffffffffffffffffffffffffffffffffff\n      and\n      dup2\n      mstore\n      0x20\n      add\n      swap1\n      dup2\n      mstore\n      0x20\n      add\n      0x00\n      keccak256\n      sload\n        /* \"bank.sol\":589:619  balances[msg.sender] >= amount */\n      lt\n      iszero\n        /* \"bank.sol\":581:644  require(balances[msg.sender] >= amount, \"Insufficient balance\") */\n      tag_22\n      jumpi\n      mload(0x40)\n      0x08c379a000000000000000000000000000000000000000000000000000000000\n      dup2\n      mstore\n      0x04\n      add\n      tag_23\n      swap1\n      tag_24\n      jump\t// in\n    tag_23:\n      mload(0x40)\n      dup1\n      swap2\n      sub\n      swap1\n      revert\n    tag_22:\n        /* \"bank.sol\":679:685  amount */\n      dup1\n        /* \"bank.sol\":655:663  balances */\n      0x00\n        /* \"bank.sol\":655:675  balances[msg.sender] */\n      0x00\n        /* \"bank.sol\":664:674  msg.sender */\n      caller\n        /* \"bank.sol\":655:675  balances[msg.sender] */\n      0xffffffffffffffffffffffffffffffffffffffff\n      and\n      0xffffffffffffffffffffffffffffffffffffffff\n      and\n      dup2\n      mstore\n      0x20\n      add\n      swap1\n      dup2\n      mstore\n      0x20\n      add\n      0x00\n      keccak256\n      0x00\n        /* \"bank.sol\":655:685  balances[msg.sender] -= amount */\n      dup3\n      dup3\n      sload\n      tag_25\n      swap2\n      swap1\n      tag_26\n      jump\t// in\n    tag_25:\n      swap3\n      pop\n      pop\n      dup2\n      swap1\n      sstore\n      pop\n        /* \"bank.sol\":712:722  msg.sender */\n      caller\n        /* \"bank.sol\":701:731  Withdrawal(msg.sender, amount) */\n      0xffffffffffffffffffffffffffffffffffffffff\n      and\n      0x7fcf532c15f0a6db0bd6d0e038bea71d30d808c7d98cb3bf7268a95bf5081b65\n        /* \"bank.sol\":724:730  amount */\n      dup3\n        /* \"bank.sol\":701:731  Withdrawal(msg.sender, amount) */\n      mload(0x40)\n      tag_27\n      swap2\n      swap1\n      tag_9\n      jump\t// in\n    tag_27:\n      mload(0x40)\n      dup1\n      swap2\n      sub\n      swap1\n      log2\n        /* \"bank.sol\":461:739  function withdraw(uint256 amount) external {... */\n      pop\n      jump\t// out\n        /* \"bank.sol\":253:453  function deposit(uint256 amount) external {... */\n    tag_16:\n        /* \"bank.sol\":323:324  0 */\n      0x00\n        /* \"bank.sol\":314:320  amount */\n      dup2\n        /* \"bank.sol\":314:324  amount > 0 */\n      gt\n        /* \"bank.sol\":306:361  require(amount > 0, \"Amount must be greater than zero\") */\n      tag_29\n      jumpi\n      mload(0x40)\n      0x08c379a000000000000000000000000000000000000000000000000000000000\n      dup2\n      mstore\n      0x04\n      add\n      tag_30\n      swap1\n      tag_21\n      jump\t// in\n    tag_30:\n      mload(0x40)\n      dup1\n      swap2\n      sub\n      swap1\n      revert\n    tag_29:\n        /* \"bank.sol\":396:402  amount */\n      dup1\n        /* \"bank.sol\":372:380  balances */\n      0x00\n        /* \"bank.sol\":372:392  balances[msg.sender] */\n      0x00\n        /* \"bank.sol\":381:391  msg.sender */\n      caller\n        /* \"bank.sol\":372:392  balances[msg.sender] */\n      0xffffffffffffffffffffffffffffffffffffffff\n      and\n      0xffffffffffffffffffffffffffffffffffffffff\n      and\n      dup2\n      mstore\n      0x20\n      add\n      swap1\n      dup2\n      mstore\n      0x20\n      add\n      0x00\n      keccak256\n      0x00\n        /* \"bank.sol\":372:402  balances[msg.sender] += amount */\n      dup3\n      dup3\n      sload\n      tag_31\n      swap2\n      swap1\n      tag_32\n      jump\t// in\n    tag_31:\n      swap3\n      pop\n      pop\n      dup2\n      swap1\n      sstore\n      pop\n        /* \"bank.sol\":426:436  msg.sender */\n      caller\n        /* \"bank.sol\":418:445  Deposit(msg.sender, amount) */\n      0xffffffffffffffffffffffffffffffffffffffff\n      and\n      0xe1fffcc4923d04b559f4d29a8bfc6cda04eb5b0d3c460751c2402c5c5cc9109c\n        /* \"bank.sol\":438:444  amount */\n      dup3\n        /* \"bank.sol\":418:445  Deposit(msg.sender, amount) */\n      mload(0x40)\n      tag_33\n      swap2\n      swap1\n      tag_9\n      jump\t// in\n    tag_33:\n      mload(0x40)\n      dup1\n      swap2\n      sub\n      swap1\n      log2\n        /* \"bank.sol\":253:453  function deposit(uint256 amount) external {... */\n      pop\n      jump\t// out\n        /* \"#utility.yul\":7:84   */\n    tag_34:\n        /* \"#utility.yul\":44:51   */\n      0x00\n        /* \"#utility.yul\":73:78   */\n      dup2\n        /* \"#utility.yul\":62:78   */\n      swap1\n      pop\n        /* \"#utility.yul\":7:84   */\n      swap2\n      swap1\n      pop\n      jump\t// out\n        /* \"#utility.yul\":90:208   */\n    tag_35:\n        /* \"#utility.yul\":177:201   */\n      tag_50\n        /* \"#utility.yul\":195:200   */\n      dup2\n        /* \"#utility.yul\":177:201   */\n      tag_34\n      jump\t// in\n    tag_50:\n        /* \"#utility.yul\":172:175   */\n      dup3\n        /* \"#utility.yul\":165:202   */\n      mstore\n        /* \"#utility.yul\":90:208   */\n      pop\n      pop\n      jump\t// out\n        /* \"#utility.yul\":214:436   */\n    tag_9:\n        /* \"#utility.yul\":307:311   */\n      0x00\n        /* \"#utility.yul\":345:347   */\n      0x20\n        /* \"#utility.yul\":334:343   */\n      dup3\n        /* \"#utility.yul\":330:348   */\n      add\n        /* \"#utility.yul\":322:348   */\n      swap1\n      pop\n        /* \"#utility.yul\":358:429   */\n      tag_52\n        /* \"#utility.yul\":426:427   */\n      0x00\n        /* \"#utility.yul\":415:424   */\n      dup4\n        /* \"#utility.yul\":411:428   */\n      add\n        /* \"#utility.yul\":402:408   */\n      dup5\n        /* \"#utility.yul\":358:429   */\n      tag_35\n      jump\t// in\n    tag_52:\n        /* \"#utility.yul\":214:436   */\n      swap3\n      swap2\n      pop\n      pop\n      jump\t// out\n        /* \"#utility.yul\":523:640   */\n    tag_37:\n        /* \"#utility.yul\":632:633   */\n      0x00\n        /* \"#utility.yul\":629:630   */\n      0x00\n        /* \"#utility.yul\":622:634   */\n      revert\n        /* \"#utility.yul\":769:891   */\n    tag_39:\n        /* \"#utility.yul\":842:866   */\n      tag_57\n        /* \"#utility.yul\":860:865   */\n      dup2\n        /* \"#utility.yul\":842:866   */\n      tag_34\n      jump\t// in\n    tag_57:\n        /* \"#utility.yul\":835:840   */\n      dup2\n        /* \"#utility.yul\":832:867   */\n      eq\n        /* \"#utility.yul\":822:885   */\n      tag_58\n      jumpi\n        /* \"#utility.yul\":881:882   */\n      0x00\n        /* \"#utility.yul\":878:879   */\n      0x00\n        /* \"#utility.yul\":871:883   */\n      revert\n        /* \"#utility.yul\":822:885   */\n    tag_58:\n        /* \"#utility.yul\":769:891   */\n      pop\n      jump\t// out\n        /* \"#utility.yul\":897:1036   */\n    tag_40:\n        /* \"#utility.yul\":943:948   */\n      0x00\n        /* \"#utility.yul\":981:987   */\n      dup2\n        /* \"#utility.yul\":968:988   */\n      calldataload\n        /* \"#utility.yul\":959:988   */\n      swap1\n      pop\n        /* \"#utility.yul\":997:1030   */\n      tag_60\n        /* \"#utility.yul\":1024:1029   */\n      dup2\n        /* \"#utility.yul\":997:1030   */\n      tag_39\n      jump\t// in\n    tag_60:\n        /* \"#utility.yul\":897:1036   */\n      swap3\n      swap2\n      pop\n      pop\n      jump\t// out\n        /* \"#utility.yul\":1042:1371   */\n    tag_12:\n        /* \"#utility.yul\":1101:1107   */\n      0x00\n        /* \"#utility.yul\":1150:1152   */\n      0x20\n        /* \"#utility.yul\":1138:1147   */\n      dup3\n        /* \"#utility.yul\":1129:1136   */\n      dup5\n        /* \"#utility.yul\":1125:1148   */\n      sub\n        /* \"#utility.yul\":1121:1153   */\n      slt\n        /* \"#utility.yul\":1118:1237   */\n      iszero\n      tag_62\n      jumpi\n        /* \"#utility.yul\":1156:1235   */\n      tag_63\n      tag_37\n      jump\t// in\n    tag_63:\n        /* \"#utility.yul\":1118:1237   */\n    tag_62:\n        /* \"#utility.yul\":1276:1277   */\n      0x00\n        /* \"#utility.yul\":1301:1354   */\n      tag_64\n        /* \"#utility.yul\":1346:1353   */\n      dup5\n        /* \"#utility.yul\":1337:1343   */\n      dup3\n        /* \"#utility.yul\":1326:1335   */\n      dup6\n        /* \"#utility.yul\":1322:1344   */\n      add\n        /* \"#utility.yul\":1301:1354   */\n      tag_40\n      jump\t// in\n    tag_64:\n        /* \"#utility.yul\":1291:1354   */\n      swap2\n      pop\n        /* \"#utility.yul\":1247:1364   */\n      pop\n        /* \"#utility.yul\":1042:1371   */\n      swap3\n      swap2\n      pop\n      pop\n      jump\t// out\n        /* \"#utility.yul\":1377:1546   */\n    tag_41:\n        /* \"#utility.yul\":1461:1472   */\n      0x00\n        /* \"#utility.yul\":1495:1501   */\n      dup3\n        /* \"#utility.yul\":1490:1493   */\n      dup3\n        /* \"#utility.yul\":1483:1502   */\n      mstore\n        /* \"#utility.yul\":1535:1539   */\n      0x20\n        /* \"#utility.yul\":1530:1533   */\n      dup3\n        /* \"#utility.yul\":1526:1540   */\n      add\n        /* \"#utility.yul\":1511:1540   */\n      swap1\n      pop\n        /* \"#utility.yul\":1377:1546   */\n      swap3\n      swap2\n      pop\n      pop\n      jump\t// out\n        /* \"#utility.yul\":1552:1734   */\n    tag_42:\n        /* \"#utility.yul\":1692:1726   */\n      0x416d6f756e74206d7573742062652067726561746572207468616e207a65726f\n        /* \"#utility.yul\":1688:1689   */\n      0x00\n        /* \"#utility.yul\":1680:1686   */\n      dup3\n        /* \"#utility.yul\":1676:1690   */\n      add\n        /* \"#utility.yul\":1669:1727   */\n      mstore\n        /* \"#utility.yul\":1552:1734   */\n      pop\n      jump\t// out\n        /* \"#utility.yul\":1740:2106   */\n    tag_43:\n        /* \"#utility.yul\":1882:1885   */\n      0x00\n        /* \"#utility.yul\":1903:1970   */\n      tag_68\n        /* \"#utility.yul\":1967:1969   */\n      0x20\n        /* \"#utility.yul\":1962:1965   */\n      dup4\n        /* \"#utility.yul\":1903:1970   */\n      tag_41\n      jump\t// in\n    tag_68:\n        /* \"#utility.yul\":1896:1970   */\n      swap2\n      pop\n        /* \"#utility.yul\":1979:2072   */\n      tag_69\n        /* \"#utility.yul\":2068:2071   */\n      dup3\n        /* \"#utility.yul\":1979:2072   */\n      tag_42\n      jump\t// in\n    tag_69:\n        /* \"#utility.yul\":2097:2099   */\n      0x20\n        /* \"#utility.yul\":2092:2095   */\n      dup3\n        /* \"#utility.yul\":2088:2100   */\n      add\n        /* \"#utility.yul\":2081:2100   */\n      swap1\n      pop\n        /* \"#utility.yul\":1740:2106   */\n      swap2\n      swap1\n      pop\n      jump\t// out\n        /* \"#utility.yul\":2112:2531   */\n    tag_21:\n        /* \"#utility.yul\":2278:2282   */\n      0x00\n        /* \"#utility.yul\":2316:2318   */\n      0x20\n        /* \"#utility.yul\":2305:2314   */\n      dup3\n        /* \"#utility.yul\":2301:2319   */\n      add\n        /* \"#utility.yul\":2293:2319   */\n      swap1\n      pop\n        /* \"#utility.yul\":2365:2374   */\n      dup2\n        /* \"#utility.yul\":2359:2363   */\n      dup2\n        /* \"#utility.yul\":2355:2375   */\n      sub\n        /* \"#utility.yul\":2351:2352   */\n      0x00\n        /* \"#utility.yul\":2340:2349   */\n      dup4\n        /* \"#utility.yul\":2336:2353   */\n      add\n        /* \"#utility.yul\":2329:2376   */\n      mstore\n        /* \"#utility.yul\":2393:2524   */\n      tag_71\n        /* \"#utility.yul\":2519:2523   */\n      dup2\n        /* \"#utility.yul\":2393:2524   */\n      tag_43\n      jump\t// in\n    tag_71:\n        /* \"#utility.yul\":2385:2524   */\n      swap1\n      pop\n        /* \"#utility.yul\":2112:2531   */\n      swap2\n      swap1\n      pop\n      jump\t// out\n        /* \"#utility.yul\":2537:2707   */\n    tag_44:\n        /* \"#utility.yul\":2677:2699   */\n      0x496e73756666696369656e742062616c616e6365000000000000000000000000\n        /* \"#utility.yul\":2673:2674   */\n      0x00\n        /* \"#utility.yul\":2665:2671   */\n      dup3\n        /* \"#utility.yul\":2661:2675   */\n      add\n        /* \"#utility.yul\":2654:2700   */\n      mstore\n        /* \"#utility.yul\":2537:2707   */\n      pop\n      jump\t// out\n        /* \"#utility.yul\":2713:3079   */\n    tag_45:\n        /* \"#utility.yul\":2855:2858   */\n      0x00\n        /* \"#utility.yul\":2876:2943   */\n      tag_74\n        /* \"#utility.yul\":2940:2942   */\n      0x14\n        /* \"#utility.yul\":2935:2938   */\n      dup4\n        /* \"#utility.yul\":2876:2943   */\n      tag_41\n      jump\t// in\n    tag_74:\n        /* \"#utility.yul\":2869:2943   */\n      swap2\n      pop\n        /* \"#utility.yul\":2952:3045   */\n      tag_75\n        /* \"#utility.yul\":3041:3044   */\n      dup3\n        /* \"#utility.yul\":2952:3045   */\n      tag_44\n      jump\t// in\n    tag_75:\n        /* \"#utility.yul\":3070:3072   */\n      0x20\n        /* \"#utility.yul\":3065:3068   */\n      dup3\n        /* \"#utility.yul\":3061:3073   */\n      add\n        /* \"#utility.yul\":3054:3073   */\n      swap1\n      pop\n        /* \"#utility.yul\":2713:3079   */\n      swap2\n      swap1\n      pop\n      jump\t// out\n        /* \"#utility.yul\":3085:3504   */\n    tag_24:\n        /* \"#utility.yul\":3251:3255   */\n      0x00\n        /* \"#utility.yul\":3289:3291   */\n      0x20\n        /* \"#utility.yul\":3278:3287   */\n      dup3\n        /* \"#utility.yul\":3274:3292   */\n      add\n        /* \"#utility.yul\":3266:3292   */\n      swap1\n      pop\n        /* \"#utility.yul\":3338:3347   */\n      dup2\n        /* \"#utility.yul\":3332:3336   */\n      dup2\n        /* \"#utility.yul\":3328:3348   */\n      sub\n        /* \"#utility.yul\":3324:3325   */\n      0x00\n        /* \"#utility.yul\":3313:3322   */\n      dup4\n        /* \"#utility.yul\":3309:3326   */\n      add\n        /* \"#utility.yul\":3302:3349   */\n      mstore\n        /* \"#utility.yul\":3366:3497   */\n      tag_77\n        /* \"#utility.yul\":3492:3496   */\n      dup2\n        /* \"#utility.yul\":3366:3497   */\n      tag_45\n      jump\t// in\n    tag_77:\n        /* \"#utility.yul\":3358:3497   */\n      swap1\n      pop\n        /* \"#utility.yul\":3085:3504   */\n      swap2\n      swap1\n      pop\n      jump\t// out\n        /* \"#utility.yul\":3510:3690   */\n    tag_46:\n        /* \"#utility.yul\":3558:3635   */\n      0x4e487b7100000000000000000000000000000000000000000000000000000000\n        /* \"#utility.yul\":3555:3556   */\n      0x00\n        /* \"#utility.yul\":3548:3636   */\n      mstore\n        /* \"#utility.yul\":3655:3659   */\n      0x11\n        /* \"#utility.yul\":3652:3653   */\n      0x04\n        /* \"#utility.yul\":3645:3660   */\n      mstore\n        /* \"#utility.yul\":3679:3683   */\n      0x24\n        /* \"#utility.yul\":3676:3677   */\n      0x00\n        /* \"#utility.yul\":3669:3684   */\n      revert\n        /* \"#utility.yul\":3696:3890   */\n    tag_26:\n        /* \"#utility.yul\":3736:3740   */\n      0x00\n        /* \"#utility.yul\":3756:3776   */\n      tag_80\n        /* \"#utility.yul\":3774:3775   */\n      dup3\n        /* \"#utility.yul\":3756:3776   */\n      tag_34\n      jump\t// in\n    tag_80:\n        /* \"#utility.yul\":3751:3776   */\n      swap2\n      pop\n        /* \"#utility.yul\":3790:3810   */\n      tag_81\n        /* \"#utility.yul\":3808:3809   */\n      dup4\n        /* \"#utility.yul\":3790:3810   */\n      tag_34\n      jump\t// in\n    tag_81:\n        /* \"#utility.yul\":3785:3810   */\n      swap3\n      pop\n        /* \"#utility.yul\":3834:3835   */\n      dup3\n        /* \"#utility.yul\":3831:3832   */\n      dup3\n        /* \"#utility.yul\":3827:3836   */\n      sub\n        /* \"#utility.yul\":3819:3836   */\n      swap1\n      pop\n        /* \"#utility.yul\":3858:3859   */\n      dup2\n        /* \"#utility.yul\":3852:3856   */\n      dup2\n        /* \"#utility.yul\":3849:3860   */\n      gt\n        /* \"#utility.yul\":3846:3883   */\n      iszero\n      tag_82\n      jumpi\n        /* \"#utility.yul\":3863:3881   */\n      tag_83\n      tag_46\n      jump\t// in\n    tag_83:\n        /* \"#utility.yul\":3846:3883   */\n    tag_82:\n        /* \"#utility.yul\":3696:3890   */\n      swap3\n      swap2\n      pop\n      pop\n      jump\t// out\n        /* \"#utility.yul\":3896:4087   */\n    tag_32:\n        /* \"#utility.yul\":3936:3939   */\n      0x00\n        /* \"#utility.yul\":3955:3975   */\n      tag_85\n        /* \"#utility.yul\":3973:3974   */\n      dup3\n        /* \"#utility.yul\":3955:3975   */\n      tag_34\n      jump\t// in\n    tag_85:\n        /* \"#utility.yul\":3950:3975   */\n      swap2\n      pop\n        /* \"#utility.yul\":3989:4009   */\n      tag_86\n        /* \"#utility.yul\":4007:4008   */\n      dup4\n        /* \"#utility.yul\":3989:4009   */\n      tag_34\n      jump\t// in\n    tag_86:\n        /* \"#utility.yul\":3984:4009   */\n      swap3\n      pop\n        /* \"#utility.yul\":4032:4033   */\n      dup3\n        /* \"#utility.yul\":4029:4030   */\n      dup3\n        /* \"#utility.yul\":4025:4034   */\n      add\n        /* \"#utility.yul\":4018:4034   */\n      swap1\n      pop\n        /* \"#utility.yul\":4053:4056   */\n      dup1\n        /* \"#utility.yul\":4050:4051   */\n      dup3\n        /* \"#utility.yul\":4047:4057   */\n      gt\n        /* \"#utility.yul\":4044:4080   */\n      iszero\n      tag_87\n      jumpi\n        /* \"#utility.yul\":4060:4078   */\n      tag_88\n      tag_46\n      jump\t// in\n    tag_88:\n        /* \"#utility.yul\":4044:4080   */\n    tag_87:\n        /* \"#utility.yul\":3896:4087   */\n      swap3\n      swap2\n      pop\n      pop\n      jump\t// out\n\n    auxdata: 0xa2646970667358221220418ec59cbd72d10e45494846ce2b425b073c349443f6f1af475d98375d728e7164736f6c634300081e0033\n}\n",
				"bytecode": {
					"linkReferences": {},
					"object": "6080604052348015600e575f5ffd5b506105588061001c5f395ff3fe608060405234801561000f575f5ffd5b506004361061003f575f3560e01c806312065fe0146100435780632e1a7d4d14610061578063b6b55f251461007d575b5f5ffd5b61004b610099565b604051610058919061033d565b60405180910390f35b61007b60048036038101906100769190610384565b6100dc565b005b61009760048036038101906100929190610384565b610240565b005b5f5f5f3373ffffffffffffffffffffffffffffffffffffffff1673ffffffffffffffffffffffffffffffffffffffff1681526020019081526020015f2054905090565b5f811161011e576040517f08c379a000000000000000000000000000000000000000000000000000000000815260040161011590610409565b60405180910390fd5b805f5f3373ffffffffffffffffffffffffffffffffffffffff1673ffffffffffffffffffffffffffffffffffffffff1681526020019081526020015f2054101561019d576040517f08c379a000000000000000000000000000000000000000000000000000000000815260040161019490610471565b60405180910390fd5b805f5f3373ffffffffffffffffffffffffffffffffffffffff1673ffffffffffffffffffffffffffffffffffffffff1681526020019081526020015f205f8282546101e891906104bc565b925050819055503373ffffffffffffffffffffffffffffffffffffffff167f7fcf532c15f0a6db0bd6d0e038bea71d30d808c7d98cb3bf7268a95bf5081b6582604051610235919061033d565b60405180910390a250565b5f8111610282576040517f08c379a000000000000000000000000000000000000000000000000000000000815260040161027990610409565b60405180910390fd5b805f5f3373ffffffffffffffffffffffffffffffffffffffff1673ffffffffffffffffffffffffffffffffffffffff1681526020019081526020015f205f8282546102cd91906104ef565b925050819055503373ffffffffffffffffffffffffffffffffffffffff167fe1fffcc4923d04b559f4d29a8bfc6cda04eb5b0d3c460751c2402c5c5cc9109c8260405161031a919061033d565b60405180910390a250565b5f819050919050565b61033781610325565b82525050565b5f6020820190506103505f83018461032e565b92915050565b5f5ffd5b61036381610325565b811461036d575f5ffd5b50565b5f8135905061037e8161035a565b92915050565b5f6020828403121561039957610398610356565b5b5f6103a684828501610370565b91505092915050565b5f82825260208201905092915050565b7f416d6f756e74206d7573742062652067726561746572207468616e207a65726f5f82015250565b5f6103f36020836103af565b91506103fe826103bf565b602082019050919050565b5f6020820190508181035f830152610420816103e7565b9050919050565b7f496e73756666696369656e742062616c616e63650000000000000000000000005f82015250565b5f61045b6014836103af565b915061046682610427565b602082019050919050565b5f6020820190508181035f8301526104888161044f565b9050919050565b7f4e487b71000000000000000000000000000000000000000000000000000000005f52601160045260245ffd5b5f6104c682610325565b91506104d183610325565b92508282039050818111156104e9576104e861048f565b5b92915050565b5f6104f982610325565b915061050483610325565b925082820190508082111561051c5761051b61048f565b5b9291505056fea2646970667358221220418ec59cbd72d10e45494846ce2b425b073c349443f6f1af475d98375d728e7164736f6c634300081e0033",
					"opcodes": "PUSH1 0x80 PUSH1 0x40 MSTORE CALLVALUE DUP1 ISZERO PUSH1 0xE JUMPI PUSH0 PUSH0 REVERT JUMPDEST POP PUSH2 0x558 DUP1 PUSH2 0x1C PUSH0 CODECOPY PUSH0 RETURN INVALID PUSH1 0x80 PUSH1 0x40 MSTORE CALLVALUE DUP1 ISZERO PUSH2 0xF JUMPI PUSH0 PUSH0 REVERT JUMPDEST POP PUSH1 0x4 CALLDATASIZE LT PUSH2 0x3F JUMPI PUSH0 CALLDATALOAD PUSH1 0xE0 SHR DUP1 PUSH4 0x12065FE0 EQ PUSH2 0x43 JUMPI DUP1 PUSH4 0x2E1A7D4D EQ PUSH2 0x61 JUMPI DUP1 PUSH4 0xB6B55F25 EQ PUSH2 0x7D JUMPI JUMPDEST PUSH0 PUSH0 REVERT JUMPDEST PUSH2 0x4B PUSH2 0x99 JUMP JUMPDEST PUSH1 0x40 MLOAD PUSH2 0x58 SWAP2 SWAP1 PUSH2 0x33D JUMP JUMPDEST PUSH1 0x40 MLOAD DUP1 SWAP2 SUB SWAP1 RETURN JUMPDEST PUSH2 0x7B PUSH1 0x4 DUP1 CALLDATASIZE SUB DUP2 ADD SWAP1 PUSH2 0x76 SWAP2 SWAP1 PUSH2 0x384 JUMP JUMPDEST PUSH2 0xDC JUMP JUMPDEST STOP JUMPDEST PUSH2 0x97 PUSH1 0x4 DUP1 CALLDATASIZE SUB DUP2 ADD SWAP1 PUSH2 0x92 SWAP2 SWAP1 PUSH2 0x384 JUMP JUMPDEST PUSH2 0x240 JUMP JUMPDEST STOP JUMPDEST PUSH0 PUSH0 PUSH0 CALLER PUSH20 0xFFFFFFFFFFFFFFFFFFFFFFFFFFFFFFFFFFFFFFFF AND PUSH20 0xFFFFFFFFFFFFFFFFFFFFFFFFFFFFFFFFFFFFFFFF AND DUP2 MSTORE PUSH1 0x20 ADD SWAP1 DUP2 MSTORE PUSH1 0x20 ADD PUSH0 KECCAK256 SLOAD SWAP1 POP SWAP1 JUMP JUMPDEST PUSH0 DUP2 GT PUSH2 0x11E JUMPI PUSH1 0x40 MLOAD PUSH32 0x8C379A000000000000000000000000000000000000000000000000000000000 DUP2 MSTORE PUSH1 0x4 ADD PUSH2 0x115 SWAP1 PUSH2 0x409 JUMP JUMPDEST PUSH1 0x40 MLOAD DUP1 SWAP2 SUB SWAP1 REVERT JUMPDEST DUP1 PUSH0 PUSH0 CALLER PUSH20 0xFFFFFFFFFFFFFFFFFFFFFFFFFFFFFFFFFFFFFFFF AND PUSH20 0xFFFFFFFFFFFFFFFFFFFFFFFFFFFFFFFFFFFFFFFF AND DUP2 MSTORE PUSH1 0x20 ADD SWAP1 DUP2 MSTORE PUSH1 0x20 ADD PUSH0 KECCAK256 SLOAD LT ISZERO PUSH2 0x19D JUMPI PUSH1 0x40 MLOAD PUSH32 0x8C379A000000000000000000000000000000000000000000000000000000000 DUP2 MSTORE PUSH1 0x4 ADD PUSH2 0x194 SWAP1 PUSH2 0x471 JUMP JUMPDEST PUSH1 0x40 MLOAD DUP1 SWAP2 SUB SWAP1 REVERT JUMPDEST DUP1 PUSH0 PUSH0 CALLER PUSH20 0xFFFFFFFFFFFFFFFFFFFFFFFFFFFFFFFFFFFFFFFF AND PUSH20 0xFFFFFFFFFFFFFFFFFFFFFFFFFFFFFFFFFFFFFFFF AND DUP2 MSTORE PUSH1 0x20 ADD SWAP1 DUP2 MSTORE PUSH1 0x20 ADD PUSH0 KECCAK256 PUSH0 DUP3 DUP3 SLOAD PUSH2 0x1E8 SWAP2 SWAP1 PUSH2 0x4BC JUMP JUMPDEST SWAP3 POP POP DUP2 SWAP1 SSTORE POP CALLER PUSH20 0xFFFFFFFFFFFFFFFFFFFFFFFFFFFFFFFFFFFFFFFF AND PUSH32 0x7FCF532C15F0A6DB0BD6D0E038BEA71D30D808C7D98CB3BF7268A95BF5081B65 DUP3 PUSH1 0x40 MLOAD PUSH2 0x235 SWAP2 SWAP1 PUSH2 0x33D JUMP JUMPDEST PUSH1 0x40 MLOAD DUP1 SWAP2 SUB SWAP1 LOG2 POP JUMP JUMPDEST PUSH0 DUP2 GT PUSH2 0x282 JUMPI PUSH1 0x40 MLOAD PUSH32 0x8C379A000000000000000000000000000000000000000000000000000000000 DUP2 MSTORE PUSH1 0x4 ADD PUSH2 0x279 SWAP1 PUSH2 0x409 JUMP JUMPDEST PUSH1 0x40 MLOAD DUP1 SWAP2 SUB SWAP1 REVERT JUMPDEST DUP1 PUSH0 PUSH0 CALLER PUSH20 0xFFFFFFFFFFFFFFFFFFFFFFFFFFFFFFFFFFFFFFFF AND PUSH20 0xFFFFFFFFFFFFFFFFFFFFFFFFFFFFFFFFFFFFFFFF AND DUP2 MSTORE PUSH1 0x20 ADD SWAP1 DUP2 MSTORE PUSH1 0x20 ADD PUSH0 KECCAK256 PUSH0 DUP3 DUP3 SLOAD PUSH2 0x2CD SWAP2 SWAP1 PUSH2 0x4EF JUMP JUMPDEST SWAP3 POP POP DUP2 SWAP1 SSTORE POP CALLER PUSH20 0xFFFFFFFFFFFFFFFFFFFFFFFFFFFFFFFFFFFFFFFF AND PUSH32 0xE1FFFCC4923D04B559F4D29A8BFC6CDA04EB5B0D3C460751C2402C5C5CC9109C DUP3 PUSH1 0x40 MLOAD PUSH2 0x31A SWAP2 SWAP1 PUSH2 0x33D JUMP JUMPDEST PUSH1 0x40 MLOAD DUP1 SWAP2 SUB SWAP1 LOG2 POP JUMP JUMPDEST PUSH0 DUP2 SWAP1 POP SWAP2 SWAP1 POP JUMP JUMPDEST PUSH2 0x337 DUP2 PUSH2 0x325 JUMP JUMPDEST DUP3 MSTORE POP POP JUMP JUMPDEST PUSH0 PUSH1 0x20 DUP3 ADD SWAP1 POP PUSH2 0x350 PUSH0 DUP4 ADD DUP5 PUSH2 0x32E JUMP JUMPDEST SWAP3 SWAP2 POP POP JUMP JUMPDEST PUSH0 PUSH0 REVERT JUMPDEST PUSH2 0x363 DUP2 PUSH2 0x325 JUMP JUMPDEST DUP2 EQ PUSH2 0x36D JUMPI PUSH0 PUSH0 REVERT JUMPDEST POP JUMP JUMPDEST PUSH0 DUP2 CALLDATALOAD SWAP1 POP PUSH2 0x37E DUP2 PUSH2 0x35A JUMP JUMPDEST SWAP3 SWAP2 POP POP JUMP JUMPDEST PUSH0 PUSH1 0x20 DUP3 DUP5 SUB SLT ISZERO PUSH2 0x399 JUMPI PUSH2 0x398 PUSH2 0x356 JUMP JUMPDEST JUMPDEST PUSH0 PUSH2 0x3A6 DUP5 DUP3 DUP6 ADD PUSH2 0x370 JUMP JUMPDEST SWAP2 POP POP SWAP3 SWAP2 POP POP JUMP JUMPDEST PUSH0 DUP3 DUP3 MSTORE PUSH1 0x20 DUP3 ADD SWAP1 POP SWAP3 SWAP2 POP POP JUMP JUMPDEST PUSH32 0x416D6F756E74206D7573742062652067726561746572207468616E207A65726F PUSH0 DUP3 ADD MSTORE POP JUMP JUMPDEST PUSH0 PUSH2 0x3F3 PUSH1 0x20 DUP4 PUSH2 0x3AF JUMP JUMPDEST SWAP2 POP PUSH2 0x3FE DUP3 PUSH2 0x3BF JUMP JUMPDEST PUSH1 0x20 DUP3 ADD SWAP1 POP SWAP2 SWAP1 POP JUMP JUMPDEST PUSH0 PUSH1 0x20 DUP3 ADD SWAP1 POP DUP2 DUP2 SUB PUSH0 DUP4 ADD MSTORE PUSH2 0x420 DUP2 PUSH2 0x3E7 JUMP JUMPDEST SWAP1 POP SWAP2 SWAP1 POP JUMP JUMPDEST PUSH32 0x496E73756666696369656E742062616C616E6365000000000000000000000000 PUSH0 DUP3 ADD MSTORE POP JUMP JUMPDEST PUSH0 PUSH2 0x45B PUSH1 0x14 DUP4 PUSH2 0x3AF JUMP JUMPDEST SWAP2 POP PUSH2 0x466 DUP3 PUSH2 0x427 JUMP JUMPDEST PUSH1 0x20 DUP3 ADD SWAP1 POP SWAP2 SWAP1 POP JUMP JUMPDEST PUSH0 PUSH1 0x20 DUP3 ADD SWAP1 POP DUP2 DUP2 SUB PUSH0 DUP4 ADD MSTORE PUSH2 0x488 DUP2 PUSH2 0x44F JUMP JUMPDEST SWAP1 POP SWAP2 SWAP1 POP JUMP JUMPDEST PUSH32 0x4E487B7100000000000000000000000000000000000000000000000000000000 PUSH0 MSTORE PUSH1 0x11 PUSH1 0x4 MSTORE PUSH1 0x24 PUSH0 REVERT JUMPDEST PUSH0 PUSH2 0x4C6 DUP3 PUSH2 0x325 JUMP JUMPDEST SWAP2 POP PUSH2 0x4D1 DUP4 PUSH2 0x325 JUMP JUMPDEST SWAP3 POP DUP3 DUP3 SUB SWAP1 POP DUP2 DUP2 GT ISZERO PUSH2 0x4E9 JUMPI PUSH2 0x4E8 PUSH2 0x48F JUMP JUMPDEST JUMPDEST SWAP3 SWAP2 POP POP JUMP JUMPDEST PUSH0 PUSH2 0x4F9 DUP3 PUSH2 0x325 JUMP JUMPDEST SWAP2 POP PUSH2 0x504 DUP4 PUSH2 0x325 JUMP JUMPDEST SWAP3 POP DUP3 DUP3 ADD SWAP1 POP DUP1 DUP3 GT ISZERO PUSH2 0x51C JUMPI PUSH2 0x51B PUSH2 0x48F JUMP JUMPDEST JUMPDEST SWAP3 SWAP2 POP POP JUMP INVALID LOG2 PUSH5 0x6970667358 0x22 SLT KECCAK256 COINBASE DUP15 0xC5 SWAP13 0xBD PUSH19 0xD10E45494846CE2B425B073C349443F6F1AF47 TSTORE SWAP9 CALLDATACOPY TSTORE PUSH19 0x8E7164736F6C634300081E0033000000000000 "
				},
				"gasEstimates": {
					"creation": {
						"codeDepositCost": "273600",
						"executionCost": "310",
						"totalCost": "273910"
					},
					"external": {
						"deposit(uint256)": "infinite",
						"getBalance()": "2496",
						"withdraw(uint256)": "infinite"
					}
				},
				"methodIdentifiers": {
					"deposit(uint256)": "b6b55f25",
					"getBalance()": "12065fe0",
					"withdraw(uint256)": "2e1a7d4d"
				}
			},
			"storageLayout": {
				"storage": [
					{
						"astId": 5,
						"contract": "bank.sol:Bank",
						"label": "balances",
						"offset": 0,
						"slot": "0",
						"type": "t_mapping(t_address,t_uint256)"
					}
				],
				"types": {
					"t_address": {
						"encoding": "inplace",
						"label": "address",
						"numberOfBytes": "20"
					},
					"t_mapping(t_address,t_uint256)": {
						"encoding": "mapping",
						"key": "t_address",
						"label": "mapping(address => uint256)",
						"numberOfBytes": "32",
						"value": "t_uint256"
					},
					"t_uint256": {
						"encoding": "inplace",
						"label": "uint256",
						"numberOfBytes": "32"
					}
				}
			},
			"userdoc": {
				"kind": "user",
				"methods": {},
				"version": 1
			}
		}
	}
}